{
  "contractName": "MerchToken",
  "abi": [
    {
      "inputs": [],
      "stateMutability": "nonpayable",
      "type": "constructor"
    },
    {
      "anonymous": false,
      "inputs": [
        {
          "indexed": true,
          "internalType": "address",
          "name": "owner",
          "type": "address"
        },
        {
          "indexed": true,
          "internalType": "address",
          "name": "approved",
          "type": "address"
        },
        {
          "indexed": true,
          "internalType": "uint256",
          "name": "tokenId",
          "type": "uint256"
        }
      ],
      "name": "Approval",
      "type": "event"
    },
    {
      "anonymous": false,
      "inputs": [
        {
          "indexed": true,
          "internalType": "address",
          "name": "owner",
          "type": "address"
        },
        {
          "indexed": true,
          "internalType": "address",
          "name": "operator",
          "type": "address"
        },
        {
          "indexed": false,
          "internalType": "bool",
          "name": "approved",
          "type": "bool"
        }
      ],
      "name": "ApprovalForAll",
      "type": "event"
    },
    {
      "anonymous": false,
      "inputs": [
        {
          "indexed": true,
          "internalType": "address",
          "name": "buyer",
          "type": "address"
        },
        {
          "indexed": false,
          "internalType": "uint256",
          "name": "tokenId",
          "type": "uint256"
        }
      ],
      "name": "MerchToken",
      "type": "event"
    },
    {
      "anonymous": false,
      "inputs": [
        {
          "indexed": true,
          "internalType": "address",
          "name": "previousOwner",
          "type": "address"
        },
        {
          "indexed": true,
          "internalType": "address",
          "name": "newOwner",
          "type": "address"
        }
      ],
      "name": "OwnershipTransferred",
      "type": "event"
    },
    {
      "anonymous": false,
      "inputs": [
        {
          "indexed": true,
          "internalType": "address",
          "name": "from",
          "type": "address"
        },
        {
          "indexed": true,
          "internalType": "address",
          "name": "to",
          "type": "address"
        },
        {
          "indexed": true,
          "internalType": "uint256",
          "name": "tokenId",
          "type": "uint256"
        }
      ],
      "name": "Transfer",
      "type": "event"
    },
    {
      "inputs": [
        {
          "internalType": "address",
          "name": "to",
          "type": "address"
        },
        {
          "internalType": "uint256",
          "name": "tokenId",
          "type": "uint256"
        }
      ],
      "name": "approve",
      "outputs": [],
      "stateMutability": "nonpayable",
      "type": "function"
    },
    {
      "inputs": [
        {
          "internalType": "address",
          "name": "owner",
          "type": "address"
        }
      ],
      "name": "balanceOf",
      "outputs": [
        {
          "internalType": "uint256",
          "name": "",
          "type": "uint256"
        }
      ],
      "stateMutability": "view",
      "type": "function",
      "constant": true
    },
    {
      "inputs": [],
      "name": "baseURI",
      "outputs": [
        {
          "internalType": "string",
          "name": "",
          "type": "string"
        }
      ],
      "stateMutability": "view",
      "type": "function",
      "constant": true
    },
    {
      "inputs": [
        {
          "internalType": "uint256",
          "name": "tokenId",
          "type": "uint256"
        }
      ],
      "name": "getApproved",
      "outputs": [
        {
          "internalType": "address",
          "name": "",
          "type": "address"
        }
      ],
      "stateMutability": "view",
      "type": "function",
      "constant": true
    },
    {
      "inputs": [
        {
          "internalType": "address",
          "name": "owner",
          "type": "address"
        },
        {
          "internalType": "address",
          "name": "operator",
          "type": "address"
        }
      ],
      "name": "isApprovedForAll",
      "outputs": [
        {
          "internalType": "bool",
          "name": "",
          "type": "bool"
        }
      ],
      "stateMutability": "view",
      "type": "function",
      "constant": true
    },
    {
      "inputs": [],
      "name": "merchTypes",
      "outputs": [
        {
          "internalType": "string",
          "name": "",
          "type": "string"
        }
      ],
      "stateMutability": "view",
      "type": "function",
      "constant": true
    },
    {
      "inputs": [],
      "name": "name",
      "outputs": [
        {
          "internalType": "string",
          "name": "",
          "type": "string"
        }
      ],
      "stateMutability": "view",
      "type": "function",
      "constant": true
    },
    {
      "inputs": [],
      "name": "owner",
      "outputs": [
        {
          "internalType": "address",
          "name": "",
          "type": "address"
        }
      ],
      "stateMutability": "view",
      "type": "function",
      "constant": true
    },
    {
      "inputs": [
        {
          "internalType": "uint256",
          "name": "tokenId",
          "type": "uint256"
        }
      ],
      "name": "ownerOf",
      "outputs": [
        {
          "internalType": "address",
          "name": "",
          "type": "address"
        }
      ],
      "stateMutability": "view",
      "type": "function",
      "constant": true
    },
    {
      "inputs": [],
      "name": "renounceOwnership",
      "outputs": [],
      "stateMutability": "nonpayable",
      "type": "function"
    },
    {
      "inputs": [
        {
          "internalType": "address",
          "name": "from",
          "type": "address"
        },
        {
          "internalType": "address",
          "name": "to",
          "type": "address"
        },
        {
          "internalType": "uint256",
          "name": "tokenId",
          "type": "uint256"
        }
      ],
      "name": "safeTransferFrom",
      "outputs": [],
      "stateMutability": "nonpayable",
      "type": "function"
    },
    {
      "inputs": [
        {
          "internalType": "address",
          "name": "from",
          "type": "address"
        },
        {
          "internalType": "address",
          "name": "to",
          "type": "address"
        },
        {
          "internalType": "uint256",
          "name": "tokenId",
          "type": "uint256"
        },
        {
          "internalType": "bytes",
          "name": "_data",
          "type": "bytes"
        }
      ],
      "name": "safeTransferFrom",
      "outputs": [],
      "stateMutability": "nonpayable",
      "type": "function"
    },
    {
      "inputs": [
        {
          "internalType": "address",
          "name": "operator",
          "type": "address"
        },
        {
          "internalType": "bool",
          "name": "approved",
          "type": "bool"
        }
      ],
      "name": "setApprovalForAll",
      "outputs": [],
      "stateMutability": "nonpayable",
      "type": "function"
    },
    {
      "inputs": [
        {
          "internalType": "bytes4",
          "name": "interfaceId",
          "type": "bytes4"
        }
      ],
      "name": "supportsInterface",
      "outputs": [
        {
          "internalType": "bool",
          "name": "",
          "type": "bool"
        }
      ],
      "stateMutability": "view",
      "type": "function",
      "constant": true
    },
    {
      "inputs": [],
      "name": "symbol",
      "outputs": [
        {
          "internalType": "string",
          "name": "",
          "type": "string"
        }
      ],
      "stateMutability": "view",
      "type": "function",
      "constant": true
    },
    {
      "inputs": [],
      "name": "tags",
      "outputs": [
        {
          "internalType": "string",
          "name": "",
          "type": "string"
        }
      ],
      "stateMutability": "view",
      "type": "function",
      "constant": true
    },
    {
      "inputs": [
        {
          "internalType": "uint256",
          "name": "index",
          "type": "uint256"
        }
      ],
      "name": "tokenByIndex",
      "outputs": [
        {
          "internalType": "uint256",
          "name": "",
          "type": "uint256"
        }
      ],
      "stateMutability": "view",
      "type": "function",
      "constant": true
    },
    {
      "inputs": [
        {
          "internalType": "address",
          "name": "owner",
          "type": "address"
        },
        {
          "internalType": "uint256",
          "name": "index",
          "type": "uint256"
        }
      ],
      "name": "tokenOfOwnerByIndex",
      "outputs": [
        {
          "internalType": "uint256",
          "name": "",
          "type": "uint256"
        }
      ],
      "stateMutability": "view",
      "type": "function",
      "constant": true
    },
    {
      "inputs": [
        {
          "internalType": "uint256",
          "name": "tokenId",
          "type": "uint256"
        }
      ],
      "name": "tokenURI",
      "outputs": [
        {
          "internalType": "string",
          "name": "",
          "type": "string"
        }
      ],
      "stateMutability": "view",
      "type": "function",
      "constant": true
    },
    {
      "inputs": [],
      "name": "totalSupply",
      "outputs": [
        {
          "internalType": "uint256",
          "name": "",
          "type": "uint256"
        }
      ],
      "stateMutability": "view",
      "type": "function",
      "constant": true
    },
    {
      "inputs": [
        {
          "internalType": "address",
          "name": "from",
          "type": "address"
        },
        {
          "internalType": "address",
          "name": "to",
          "type": "address"
        },
        {
          "internalType": "uint256",
          "name": "tokenId",
          "type": "uint256"
        }
      ],
      "name": "transferFrom",
      "outputs": [],
      "stateMutability": "nonpayable",
      "type": "function"
    },
    {
      "inputs": [
        {
          "internalType": "address",
          "name": "newOwner",
          "type": "address"
        }
      ],
      "name": "transferOwnership",
      "outputs": [],
      "stateMutability": "nonpayable",
      "type": "function"
    },
    {
      "inputs": [
        {
          "internalType": "uint256",
          "name": "_price",
          "type": "uint256"
        },
        {
          "internalType": "string",
          "name": "_name",
          "type": "string"
        },
        {
          "internalType": "string",
          "name": "_picture",
          "type": "string"
        },
        {
          "internalType": "string",
          "name": "_description",
          "type": "string"
        },
        {
          "internalType": "bool",
          "name": "_forSale",
          "type": "bool"
        }
      ],
      "name": "mintToken",
      "outputs": [],
      "stateMutability": "payable",
      "type": "function",
      "payable": true
    },
    {
      "inputs": [
        {
          "internalType": "uint256",
          "name": "_id",
          "type": "uint256"
        }
      ],
      "name": "buyToken",
      "outputs": [],
      "stateMutability": "payable",
      "type": "function",
      "payable": true
    },
    {
      "inputs": [],
      "name": "getTokens",
      "outputs": [
        {
          "internalType": "uint256",
          "name": "",
          "type": "uint256"
        }
      ],
      "stateMutability": "nonpayable",
      "type": "function"
    },
    {
      "inputs": [
        {
          "internalType": "uint256",
          "name": "_tokenId",
          "type": "uint256"
        }
      ],
      "name": "getToken",
      "outputs": [
        {
          "internalType": "string",
          "name": "_name",
          "type": "string"
        },
        {
          "internalType": "string",
          "name": "_picture",
          "type": "string"
        },
        {
          "internalType": "string",
          "name": "_description",
          "type": "string"
        },
        {
          "internalType": "uint256[3]",
          "name": "_ints",
          "type": "uint256[3]"
        },
        {
          "internalType": "bool",
          "name": "_forSale",
          "type": "bool"
        }
      ],
      "stateMutability": "view",
      "type": "function",
      "constant": true
    },
    {
      "inputs": [
        {
          "internalType": "uint256",
          "name": "_tokenId",
          "type": "uint256"
        },
        {
          "internalType": "uint256",
          "name": "_newPrice",
          "type": "uint256"
        }
      ],
      "name": "changePrice",
      "outputs": [],
      "stateMutability": "nonpayable",
      "type": "function"
    },
    {
      "inputs": [
        {
          "internalType": "uint256",
          "name": "_tokenId",
          "type": "uint256"
        }
      ],
      "name": "listToken",
      "outputs": [],
      "stateMutability": "nonpayable",
      "type": "function"
    },
    {
      "inputs": [
        {
          "internalType": "uint256",
          "name": "_tokenId",
          "type": "uint256"
        }
      ],
      "name": "unListToken",
      "outputs": [],
      "stateMutability": "nonpayable",
      "type": "function"
    }
  ],
  "bytecode": "0x60806040523480156200001157600080fd5b506040518060400160405280600b81526020017f4d6572636820546f6b656e0000000000000000000000000000000000000000008152506040518060400160405280600481526020017f4f534b4900000000000000000000000000000000000000000000000000000000815250620000966301ffc9a760e01b620001d160201b60201c565b8160069080519060200190620000ae929190620002e2565b508060079080519060200190620000c7929190620002e2565b50620000e06380ac58cd60e01b620001d160201b60201c565b620000f8635b5e139f60e01b620001d160201b60201c565b6200011063780e9d6360e01b620001d160201b60201c565b5050600062000124620002da60201b60201c565b905080600a60006101000a81548173ffffffffffffffffffffffffffffffffffffffff021916908373ffffffffffffffffffffffffffffffffffffffff1602179055508073ffffffffffffffffffffffffffffffffffffffff16600073ffffffffffffffffffffffffffffffffffffffff167f8be0079c531659141344cd1fd0a4f28419497f9722a3daafe3b4186f6b6457e060405160405180910390a3506000600c8190555062000391565b63ffffffff60e01b817bffffffffffffffffffffffffffffffffffffffffffffffffffffffff191614156200026e576040517f08c379a000000000000000000000000000000000000000000000000000000000815260040180806020018281038252601c8152602001807f4552433136353a20696e76616c696420696e746572666163652069640000000081525060200191505060405180910390fd5b6001600080837bffffffffffffffffffffffffffffffffffffffffffffffffffffffff19167bffffffffffffffffffffffffffffffffffffffffffffffffffffffff1916815260200190815260200160002060006101000a81548160ff02191690831515021790555050565b600033905090565b828054600181600116156101000203166002900490600052602060002090601f016020900481019282601f106200032557805160ff191683800117855562000356565b8280016001018555821562000356579182015b828111156200035557825182559160200191906001019062000338565b5b50905062000365919062000369565b5090565b6200038e91905b808211156200038a57600081600090555060010162000370565b5090565b90565b61444180620003a16000396000f3fe6080604052600436106101c25760003560e01c8063715018a6116100f7578063b936343b11610095578063e6148d5f11610064578063e6148d5f14610ecc578063e985e9c514610f07578063f2fde38b14610f90578063f9a6178414610fe1576101c2565b8063b936343b14610a89578063c87b56dd14610bc2578063de6b7e0914610c76578063e4b50cb814610d06576101c2565b8063a22cb465116100d1578063a22cb465146108aa578063aa6ca80814610907578063b3de019c14610932578063b88d4fde14610977576101c2565b8063715018a6146107ac5780638da5cb5b146107c357806395d89b411461081a576101c2565b80632f745c59116101645780634f6ccce71161013e5780634f6ccce7146105ed5780636352211e1461063c5780636c0360eb146106b757806370a0823114610747576101c2565b80632f745c591461047357806342842e0e146104e2578063435997041461055d576101c2565b8063095ea7b3116101a0578063095ea7b31461034457806318160ddd1461039f57806323b872dd146103ca5780632d296bf114610445576101c2565b806301ffc9a7146101c757806306fdde0314610239578063081812fc146102c9575b600080fd5b3480156101d357600080fd5b5061021f600480360360208110156101ea57600080fd5b8101908080357bffffffffffffffffffffffffffffffffffffffffffffffffffffffff1916906020019092919050505061101c565b604051808215151515815260200191505060405180910390f35b34801561024557600080fd5b5061024e611083565b6040518080602001828103825283818151815260200191508051906020019080838360005b8381101561028e578082015181840152602081019050610273565b50505050905090810190601f1680156102bb5780820380516001836020036101000a031916815260200191505b509250505060405180910390f35b3480156102d557600080fd5b50610302600480360360208110156102ec57600080fd5b8101908080359060200190929190505050611125565b604051808273ffffffffffffffffffffffffffffffffffffffff1673ffffffffffffffffffffffffffffffffffffffff16815260200191505060405180910390f35b34801561035057600080fd5b5061039d6004803603604081101561036757600080fd5b81019080803573ffffffffffffffffffffffffffffffffffffffff169060200190929190803590602001909291905050506111c0565b005b3480156103ab57600080fd5b506103b4611304565b6040518082815260200191505060405180910390f35b3480156103d657600080fd5b50610443600480360360608110156103ed57600080fd5b81019080803573ffffffffffffffffffffffffffffffffffffffff169060200190929190803573ffffffffffffffffffffffffffffffffffffffff16906020019092919080359060200190929190505050611315565b005b6104716004803603602081101561045b57600080fd5b810190808035906020019092919050505061138b565b005b34801561047f57600080fd5b506104cc6004803603604081101561049657600080fd5b81019080803573ffffffffffffffffffffffffffffffffffffffff169060200190929190803590602001909291905050506114ff565b6040518082815260200191505060405180910390f35b3480156104ee57600080fd5b5061055b6004803603606081101561050557600080fd5b81019080803573ffffffffffffffffffffffffffffffffffffffff169060200190929190803573ffffffffffffffffffffffffffffffffffffffff1690602001909291908035906020019092919050505061155a565b005b34801561056957600080fd5b5061057261157a565b6040518080602001828103825283818151815260200191508051906020019080838360005b838110156105b2578082015181840152602081019050610597565b50505050905090810190601f1680156105df5780820380516001836020036101000a031916815260200191505b509250505060405180910390f35b3480156105f957600080fd5b506106266004803603602081101561061057600080fd5b81019080803590602001909291905050506115b3565b6040518082815260200191505060405180910390f35b34801561064857600080fd5b506106756004803603602081101561065f57600080fd5b81019080803590602001909291905050506115d6565b604051808273ffffffffffffffffffffffffffffffffffffffff1673ffffffffffffffffffffffffffffffffffffffff16815260200191505060405180910390f35b3480156106c357600080fd5b506106cc61160d565b6040518080602001828103825283818151815260200191508051906020019080838360005b8381101561070c5780820151818401526020810190506106f1565b50505050905090810190601f1680156107395780820380516001836020036101000a031916815260200191505b509250505060405180910390f35b34801561075357600080fd5b506107966004803603602081101561076a57600080fd5b81019080803573ffffffffffffffffffffffffffffffffffffffff1690602001909291905050506116af565b6040518082815260200191505060405180910390f35b3480156107b857600080fd5b506107c1611784565b005b3480156107cf57600080fd5b506107d861190f565b604051808273ffffffffffffffffffffffffffffffffffffffff1673ffffffffffffffffffffffffffffffffffffffff16815260200191505060405180910390f35b34801561082657600080fd5b5061082f611939565b6040518080602001828103825283818151815260200191508051906020019080838360005b8381101561086f578082015181840152602081019050610854565b50505050905090810190601f16801561089c5780820380516001836020036101000a031916815260200191505b509250505060405180910390f35b3480156108b657600080fd5b50610905600480360360408110156108cd57600080fd5b81019080803573ffffffffffffffffffffffffffffffffffffffff1690602001909291908035151590602001909291905050506119db565b005b34801561091357600080fd5b5061091c611b93565b6040518082815260200191505060405180910390f35b34801561093e57600080fd5b506109756004803603604081101561095557600080fd5b810190808035906020019092919080359060200190929190505050611b9d565b005b34801561098357600080fd5b50610a876004803603608081101561099a57600080fd5b81019080803573ffffffffffffffffffffffffffffffffffffffff169060200190929190803573ffffffffffffffffffffffffffffffffffffffff1690602001909291908035906020019092919080359060200190640100000000811115610a0157600080fd5b820183602082011115610a1357600080fd5b80359060200191846001830284011164010000000083111715610a3557600080fd5b91908080601f016020809104026020016040519081016040528093929190818152602001838380828437600081840152601f19601f820116905080830192505050505050509192919290505050611cea565b005b610bc0600480360360a0811015610a9f57600080fd5b810190808035906020019092919080359060200190640100000000811115610ac657600080fd5b820183602082011115610ad857600080fd5b80359060200191846001830284011164010000000083111715610afa57600080fd5b909192939192939080359060200190640100000000811115610b1b57600080fd5b820183602082011115610b2d57600080fd5b80359060200191846001830284011164010000000083111715610b4f57600080fd5b909192939192939080359060200190640100000000811115610b7057600080fd5b820183602082011115610b8257600080fd5b80359060200191846001830284011164010000000083111715610ba457600080fd5b9091929391929390803515159060200190929190505050611d62565b005b348015610bce57600080fd5b50610bfb60048036036020811015610be557600080fd5b8101908080359060200190929190505050612414565b6040518080602001828103825283818151815260200191508051906020019080838360005b83811015610c3b578082015181840152602081019050610c20565b50505050905090810190601f168015610c685780820380516001836020036101000a031916815260200191505b509250505060405180910390f35b348015610c8257600080fd5b50610c8b6126fd565b6040518080602001828103825283818151815260200191508051906020019080838360005b83811015610ccb578082015181840152602081019050610cb0565b50505050905090810190601f168015610cf85780820380516001836020036101000a031916815260200191505b509250505060405180910390f35b348015610d1257600080fd5b50610d3f60048036036020811015610d2957600080fd5b8101908080359060200190929190505050612719565b6040518080602001806020018060200186600360200280838360005b83811015610d76578082015181840152602081019050610d5b565b5050505090500185151515158152602001848103845289818151815260200191508051906020019080838360005b83811015610dbf578082015181840152602081019050610da4565b50505050905090810190601f168015610dec5780820380516001836020036101000a031916815260200191505b50848103835288818151815260200191508051906020019080838360005b83811015610e25578082015181840152602081019050610e0a565b50505050905090810190601f168015610e525780820380516001836020036101000a031916815260200191505b50848103825287818151815260200191508051906020019080838360005b83811015610e8b578082015181840152602081019050610e70565b50505050905090810190601f168015610eb85780820380516001836020036101000a031916815260200191505b509850505050505050505060405180910390f35b348015610ed857600080fd5b50610f0560048036036020811015610eef57600080fd5b81019080803590602001909291905050506129ff565b005b348015610f1357600080fd5b50610f7660048036036040811015610f2a57600080fd5b81019080803573ffffffffffffffffffffffffffffffffffffffff169060200190929190803573ffffffffffffffffffffffffffffffffffffffff169060200190929190505050612a9f565b604051808215151515815260200191505060405180910390f35b348015610f9c57600080fd5b50610fdf60048036036020811015610fb357600080fd5b81019080803573ffffffffffffffffffffffffffffffffffffffff169060200190929190505050612b33565b005b348015610fed57600080fd5b5061101a6004803603602081101561100457600080fd5b8101908080359060200190929190505050612d43565b005b6000806000837bffffffffffffffffffffffffffffffffffffffffffffffffffffffff19167bffffffffffffffffffffffffffffffffffffffffffffffffffffffff1916815260200190815260200160002060009054906101000a900460ff169050919050565b606060068054600181600116156101000203166002900480601f01602080910402602001604051908101604052809291908181526020018280546001816001161561010002031660029004801561111b5780601f106110f05761010080835404028352916020019161111b565b820191906000526020600020905b8154815290600101906020018083116110fe57829003601f168201915b5050505050905090565b600061113082612de2565b611185576040517f08c379a000000000000000000000000000000000000000000000000000000000815260040180806020018281038252602c8152602001806142f1602c913960400191505060405180910390fd5b6004600083815260200190815260200160002060009054906101000a900473ffffffffffffffffffffffffffffffffffffffff169050919050565b60006111cb826115d6565b90508073ffffffffffffffffffffffffffffffffffffffff168373ffffffffffffffffffffffffffffffffffffffff161415611252576040517f08c379a00000000000000000000000000000000000000000000000000000000081526004018080602001828103825260218152602001806143ba6021913960400191505060405180910390fd5b8073ffffffffffffffffffffffffffffffffffffffff16611271612dff565b73ffffffffffffffffffffffffffffffffffffffff1614806112a0575061129f8161129a612dff565b612a9f565b5b6112f5576040517f08c379a00000000000000000000000000000000000000000000000000000000081526004018080602001828103825260388152602001806142446038913960400191505060405180910390fd5b6112ff8383612e07565b505050565b60006113106002612ec0565b905090565b611326611320612dff565b82612ed5565b61137b576040517f08c379a00000000000000000000000000000000000000000000000000000000081526004018080602001828103825260318152602001806143db6031913960400191505060405180910390fd5b611386838383612fc9565b505050565b6000600b600083815260200190815260200160002060000154116113ae57600080fd5b600b6000828152602001908152602001600020600001543410156113d157600080fd5b60011515600b600083815260200190815260200160002060060160009054906101000a900460ff1615151461140557600080fd5b6000611410826115d6565b73ffffffffffffffffffffffffffffffffffffffff166108fc349081150290604051600060405180830381858888f193505050509050806114b9576040517f08c379a00000000000000000000000000000000000000000000000000000000081526004018080602001828103825260148152602001807f4661696c656420746f2073656e6420457468657200000000000000000000000081525060200191505060405180910390fd5b6114cc6114c5836115d6565b3384612fc9565b6000600b600084815260200190815260200160002060060160006101000a81548160ff0219169083151502179055505050565b600061155282600160008673ffffffffffffffffffffffffffffffffffffffff1673ffffffffffffffffffffffffffffffffffffffff16815260200190815260200160002061320c90919063ffffffff16565b905092915050565b61157583838360405180602001604052806000815250611cea565b505050565b6040518060400160405280602081526020017f53484952542c534f434b532c4241434b5041434b2c50414e54532c425249434b81525081565b6000806115ca83600261322690919063ffffffff16565b50905080915050919050565b6000611606826040518060600160405280602981526020016142a66029913960026132559092919063ffffffff16565b9050919050565b606060098054600181600116156101000203166002900480601f0160208091040260200160405190810160405280929190818152602001828054600181600116156101000203166002900480156116a55780601f1061167a576101008083540402835291602001916116a5565b820191906000526020600020905b81548152906001019060200180831161168857829003601f168201915b5050505050905090565b60008073ffffffffffffffffffffffffffffffffffffffff168273ffffffffffffffffffffffffffffffffffffffff161415611736576040517f08c379a000000000000000000000000000000000000000000000000000000000815260040180806020018281038252602a81526020018061427c602a913960400191505060405180910390fd5b61177d600160008473ffffffffffffffffffffffffffffffffffffffff1673ffffffffffffffffffffffffffffffffffffffff168152602001908152602001600020613274565b9050919050565b61178c612dff565b73ffffffffffffffffffffffffffffffffffffffff16600a60009054906101000a900473ffffffffffffffffffffffffffffffffffffffff1673ffffffffffffffffffffffffffffffffffffffff161461184e576040517f08c379a00000000000000000000000000000000000000000000000000000000081526004018080602001828103825260208152602001807f4f776e61626c653a2063616c6c6572206973206e6f7420746865206f776e657281525060200191505060405180910390fd5b600073ffffffffffffffffffffffffffffffffffffffff16600a60009054906101000a900473ffffffffffffffffffffffffffffffffffffffff1673ffffffffffffffffffffffffffffffffffffffff167f8be0079c531659141344cd1fd0a4f28419497f9722a3daafe3b4186f6b6457e060405160405180910390a36000600a60006101000a81548173ffffffffffffffffffffffffffffffffffffffff021916908373ffffffffffffffffffffffffffffffffffffffff160217905550565b6000600a60009054906101000a900473ffffffffffffffffffffffffffffffffffffffff16905090565b606060078054600181600116156101000203166002900480601f0160208091040260200160405190810160405280929190818152602001828054600181600116156101000203166002900480156119d15780601f106119a6576101008083540402835291602001916119d1565b820191906000526020600020905b8154815290600101906020018083116119b457829003601f168201915b5050505050905090565b6119e3612dff565b73ffffffffffffffffffffffffffffffffffffffff168273ffffffffffffffffffffffffffffffffffffffff161415611a84576040517f08c379a00000000000000000000000000000000000000000000000000000000081526004018080602001828103825260198152602001807f4552433732313a20617070726f766520746f2063616c6c65720000000000000081525060200191505060405180910390fd5b8060056000611a91612dff565b73ffffffffffffffffffffffffffffffffffffffff1673ffffffffffffffffffffffffffffffffffffffff16815260200190815260200160002060008473ffffffffffffffffffffffffffffffffffffffff1673ffffffffffffffffffffffffffffffffffffffff16815260200190815260200160002060006101000a81548160ff0219169083151502179055508173ffffffffffffffffffffffffffffffffffffffff16611b3e612dff565b73ffffffffffffffffffffffffffffffffffffffff167f17307eab39ab6107e8899845ad3d59bd9653f200f220920489ca2b5937696c3183604051808215151515815260200191505060405180910390a35050565b6000600c54905090565b6000811415611c14576040517f08c379a000000000000000000000000000000000000000000000000000000000815260040180806020018281038252601b8152602001807f4e6577207072696365206d757374206265206e6f6e2d7a65726f2e000000000081525060200191505060405180910390fd5b600c548210611c8b576040517f08c379a000000000000000000000000000000000000000000000000000000000815260040180806020018281038252601c8152602001807f546f6b656e206d75737420657869737420696e20636f6e74726163740000000081525060200191505060405180910390fd5b3373ffffffffffffffffffffffffffffffffffffffff16611cab836115d6565b73ffffffffffffffffffffffffffffffffffffffff1614611ccb57600080fd5b80600b6000848152602001908152602001600020600001819055505050565b611cfb611cf5612dff565b83612ed5565b611d50576040517f08c379a00000000000000000000000000000000000000000000000000000000081526004018080602001828103825260318152602001806143db6031913960400191505060405180910390fd5b611d5c84848484613289565b50505050565b606087878080601f016020809104026020016040519081016040528093929190818152602001838380828437600081840152601f19601f82011690508083019250505050505050905060008911611e21576040517f08c379a000000000000000000000000000000000000000000000000000000000815260040180806020018281038252601c8152602001807f5072696365206d7573742062652067726561746572207468616e20300000000081525060200191505060405180910390fd5b6000868690501415611e9b576040517f08c379a00000000000000000000000000000000000000000000000000000000081526004018080602001828103825260128152602001807f796f75206e65656420612070696374757265000000000000000000000000000081525060200191505060405180910390fd5b6000848490501415611f15576040517f08c379a000000000000000000000000000000000000000000000000000000000815260040180806020018281038252601e8152602001807f4465736372697074696f6e2073686f756c64206e6f74206265206e756c6c000081525060200191505060405180910390fd5b600160ff1681511015611f90576040517f08c379a00000000000000000000000000000000000000000000000000000000081526004018080602001828103825260128152602001807f5469746c6520697320746f6f2073686f7274000000000000000000000000000081525060200191505060405180910390fd5b604060ff168151111561200b576040517f08c379a00000000000000000000000000000000000000000000000000000000081526004018080602001828103825260118152602001807f5469746c6520697320746f6f206c6f6e6700000000000000000000000000000081525060200191505060405180910390fd5b600060023373ffffffffffffffffffffffffffffffffffffffff164201604051602001808281526020019150506040516020818303038152906040526040518082805190602001908083835b6020831061207a5780518252602082019150602081019050602083039250612057565b6001836020036101000a038019825116818451168082178552505050505050905001915050602060405180830381855afa1580156120bc573d6000803e3d6000fd5b5050506040513d60208110156120d157600080fd5b810190808051906020019092919050505090506000816040516020018082815260200191505060405160208183030381529060405280519060200120905060008160001c90506000600a828161212357fe5b06905060006005838161213257fe5b069050600481111561218f576040517f08c379a000000000000000000000000000000000000000000000000000000000815260040180806020018281038252602181526020018061431d6021913960400191505060405180910390fd5b60098211156121e9576040517f08c379a00000000000000000000000000000000000000000000000000000000081526004018080602001828103825260248152602001806143966024913960400191505060405180910390fd5b6121f533600c546132fb565b6040518060e001604052808f81526020018e8e8080601f016020809104026020016040519081016040528093929190818152602001838380828437600081840152601f19601f8201169050808301925050505050505081526020018c8c8080601f016020809104026020016040519081016040528093929190818152602001838380828437600081840152601f19601f8201169050808301925050505050505081526020018a8a8080601f016020809104026020016040519081016040528093929190818152602001838380828437600081840152601f19601f820116905080830192505050505050508152602001838152602001828152602001881515815250600b6000600c548152602001908152602001600020600082015181600001556020820151816001019080519060200190612331929190614051565b50604082015181600201908051906020019061234e929190614051565b50606082015181600301908051906020019061236b929190614051565b506080820151816004015560a0820151816005015560c08201518160060160006101000a81548160ff0219169083151502179055509050506001600c600082825401925050819055503373ffffffffffffffffffffffffffffffffffffffff167f0204690aa19505ba6c49a2488683b90be00ad6557e40b124989bf130f6f74bc7600c546040518082815260200191505060405180910390a25050505050505050505050505050565b606061241f82612de2565b612474576040517f08c379a000000000000000000000000000000000000000000000000000000000815260040180806020018281038252602f815260200180614367602f913960400191505060405180910390fd5b6060600860008481526020019081526020016000208054600181600116156101000203166002900480601f01602080910402602001604051908101604052809291908181526020018280546001816001161561010002031660029004801561251d5780601f106124f25761010080835404028352916020019161251d565b820191906000526020600020905b81548152906001019060200180831161250057829003601f168201915b5050505050905060006009805460018160011615610100020316600290049050141561254c57809150506126f8565b6000815111156126255760098160405160200180838054600181600116156101000203166002900480156125b75780601f106125955761010080835404028352918201916125b7565b820191906000526020600020905b8154815290600101906020018083116125a3575b505082805190602001908083835b602083106125e857805182526020820191506020810190506020830392506125c5565b6001836020036101000a038019825116818451168082178552505050505050905001925050506040516020818303038152906040529150506126f8565b6009612630846134ef565b604051602001808380546001816001161561010002031660029004801561268e5780601f1061266c57610100808354040283529182019161268e565b820191906000526020600020905b81548152906001019060200180831161267a575b505082805190602001908083835b602083106126bf578051825260208201915060208101905060208303925061269c565b6001836020036101000a038019825116818451168082178552505050505050905001925050506040516020818303038152906040529150505b919050565b6040518060600160405280603b815260200161413b603b913981565b60608060606127266140d1565b6000600c54861061273657600080fd5b600b60008781526020019081526020016000206001018054600181600116156101000203166002900480601f0160208091040260200160405190810160405280929190818152602001828054600181600116156101000203166002900480156127e05780601f106127b5576101008083540402835291602001916127e0565b820191906000526020600020905b8154815290600101906020018083116127c357829003601f168201915b50505050509450600b60008781526020019081526020016000206002018054600181600116156101000203166002900480601f0160208091040260200160405190810160405280929190818152602001828054600181600116156101000203166002900480156128915780601f1061286657610100808354040283529160200191612891565b820191906000526020600020905b81548152906001019060200180831161287457829003601f168201915b50505050509350600b60008781526020019081526020016000206003018054600181600116156101000203166002900480601f0160208091040260200160405190810160405280929190818152602001828054600181600116156101000203166002900480156129425780601f1061291757610100808354040283529160200191612942565b820191906000526020600020905b81548152906001019060200180831161292557829003601f168201915b50505050509250600b6000878152602001908152602001600020600001548260006003811061296d57fe5b602002018181525050600b6000878152602001908152602001600020600401548260016003811061299a57fe5b602002018181525050600b600087815260200190815260200160002060050154826002600381106129c757fe5b602002018181525050600b600087815260200190815260200160002060060160009054906101000a900460ff16905091939590929450565b3373ffffffffffffffffffffffffffffffffffffffff16612a1f826115d6565b73ffffffffffffffffffffffffffffffffffffffff1614612a3f57600080fd5b600b600082815260200190815260200160002060060160009054906101000a900460ff1615612a6d57600080fd5b6001600b600083815260200190815260200160002060060160006101000a81548160ff02191690831515021790555050565b6000600560008473ffffffffffffffffffffffffffffffffffffffff1673ffffffffffffffffffffffffffffffffffffffff16815260200190815260200160002060008373ffffffffffffffffffffffffffffffffffffffff1673ffffffffffffffffffffffffffffffffffffffff16815260200190815260200160002060009054906101000a900460ff16905092915050565b612b3b612dff565b73ffffffffffffffffffffffffffffffffffffffff16600a60009054906101000a900473ffffffffffffffffffffffffffffffffffffffff1673ffffffffffffffffffffffffffffffffffffffff1614612bfd576040517f08c379a00000000000000000000000000000000000000000000000000000000081526004018080602001828103825260208152602001807f4f776e61626c653a2063616c6c6572206973206e6f7420746865206f776e657281525060200191505060405180910390fd5b600073ffffffffffffffffffffffffffffffffffffffff168173ffffffffffffffffffffffffffffffffffffffff161415612c83576040517f08c379a00000000000000000000000000000000000000000000000000000000081526004018080602001828103825260268152602001806141a86026913960400191505060405180910390fd5b8073ffffffffffffffffffffffffffffffffffffffff16600a60009054906101000a900473ffffffffffffffffffffffffffffffffffffffff1673ffffffffffffffffffffffffffffffffffffffff167f8be0079c531659141344cd1fd0a4f28419497f9722a3daafe3b4186f6b6457e060405160405180910390a380600a60006101000a81548173ffffffffffffffffffffffffffffffffffffffff021916908373ffffffffffffffffffffffffffffffffffffffff16021790555050565b3373ffffffffffffffffffffffffffffffffffffffff16612d63826115d6565b73ffffffffffffffffffffffffffffffffffffffff1614612d8357600080fd5b600b600082815260200190815260200160002060060160009054906101000a900460ff16612db057600080fd5b6000600b600083815260200190815260200160002060060160006101000a81548160ff02191690831515021790555050565b6000612df882600261363690919063ffffffff16565b9050919050565b600033905090565b816004600083815260200190815260200160002060006101000a81548173ffffffffffffffffffffffffffffffffffffffff021916908373ffffffffffffffffffffffffffffffffffffffff160217905550808273ffffffffffffffffffffffffffffffffffffffff16612e7a836115d6565b73ffffffffffffffffffffffffffffffffffffffff167f8c5be1e5ebec7d5bd14f71427d1e84f3dd0314c0f7b2291e5b200ac8c7c3b92560405160405180910390a45050565b6000612ece82600001613650565b9050919050565b6000612ee082612de2565b612f35576040517f08c379a000000000000000000000000000000000000000000000000000000000815260040180806020018281038252602c815260200180614218602c913960400191505060405180910390fd5b6000612f40836115d6565b90508073ffffffffffffffffffffffffffffffffffffffff168473ffffffffffffffffffffffffffffffffffffffff161480612faf57508373ffffffffffffffffffffffffffffffffffffffff16612f9784611125565b73ffffffffffffffffffffffffffffffffffffffff16145b80612fc05750612fbf8185612a9f565b5b91505092915050565b8273ffffffffffffffffffffffffffffffffffffffff16612fe9826115d6565b73ffffffffffffffffffffffffffffffffffffffff1614613055576040517f08c379a000000000000000000000000000000000000000000000000000000000815260040180806020018281038252602981526020018061433e6029913960400191505060405180910390fd5b600073ffffffffffffffffffffffffffffffffffffffff168273ffffffffffffffffffffffffffffffffffffffff1614156130db576040517f08c379a00000000000000000000000000000000000000000000000000000000081526004018080602001828103825260248152602001806141ce6024913960400191505060405180910390fd5b6130e6838383613661565b6130f1600082612e07565b61314281600160008673ffffffffffffffffffffffffffffffffffffffff1673ffffffffffffffffffffffffffffffffffffffff16815260200190815260200160002061366690919063ffffffff16565b5061319481600160008573ffffffffffffffffffffffffffffffffffffffff1673ffffffffffffffffffffffffffffffffffffffff16815260200190815260200160002061368090919063ffffffff16565b506131ab8183600261369a9092919063ffffffff16565b50808273ffffffffffffffffffffffffffffffffffffffff168473ffffffffffffffffffffffffffffffffffffffff167fddf252ad1be2c89b69c2b068fc378daa952ba7f163c4a11628f55a4df523b3ef60405160405180910390a4505050565b600061321b83600001836136cf565b60001c905092915050565b6000806000806132398660000186613752565b915091508160001c8160001c8090509350935050509250929050565b6000613268846000018460001b846137eb565b60001c90509392505050565b6000613282826000016138e1565b9050919050565b613294848484612fc9565b6132a0848484846138f2565b6132f5576040517f08c379a00000000000000000000000000000000000000000000000000000000081526004018080602001828103825260328152602001806141766032913960400191505060405180910390fd5b50505050565b600073ffffffffffffffffffffffffffffffffffffffff168273ffffffffffffffffffffffffffffffffffffffff16141561339e576040517f08c379a00000000000000000000000000000000000000000000000000000000081526004018080602001828103825260208152602001807f4552433732313a206d696e7420746f20746865207a65726f206164647265737381525060200191505060405180910390fd5b6133a781612de2565b1561341a576040517f08c379a000000000000000000000000000000000000000000000000000000000815260040180806020018281038252601c8152602001807f4552433732313a20746f6b656e20616c7265616479206d696e7465640000000081525060200191505060405180910390fd5b61342660008383613661565b61347781600160008573ffffffffffffffffffffffffffffffffffffffff1673ffffffffffffffffffffffffffffffffffffffff16815260200190815260200160002061368090919063ffffffff16565b5061348e8183600261369a9092919063ffffffff16565b50808273ffffffffffffffffffffffffffffffffffffffff16600073ffffffffffffffffffffffffffffffffffffffff167fddf252ad1be2c89b69c2b068fc378daa952ba7f163c4a11628f55a4df523b3ef60405160405180910390a45050565b60606000821415613537576040518060400160405280600181526020017f30000000000000000000000000000000000000000000000000000000000000008152509050613631565b600082905060005b60008214613561578080600101915050600a828161355957fe5b04915061353f565b60608167ffffffffffffffff8111801561357a57600080fd5b506040519080825280601f01601f1916602001820160405280156135ad5781602001600182028036833780820191505090505b50905060006001830390508593505b6000841461362957600a84816135ce57fe5b0660300160f81b828280600190039350815181106135e857fe5b60200101907effffffffffffffffffffffffffffffffffffffffffffffffffffffffffffff1916908160001a905350600a848161362157fe5b0493506135bc565b819450505050505b919050565b6000613648836000018360001b613b37565b905092915050565b600081600001805490509050919050565b505050565b6000613678836000018360001b613b5a565b905092915050565b6000613692836000018360001b613c42565b905092915050565b60006136c6846000018460001b8473ffffffffffffffffffffffffffffffffffffffff1660001b613cb2565b90509392505050565b600081836000018054905011613730576040517f08c379a00000000000000000000000000000000000000000000000000000000081526004018080602001828103825260228152602001806141196022913960400191505060405180910390fd5b82600001828154811061373f57fe5b9060005260206000200154905092915050565b600080828460000180549050116137b4576040517f08c379a00000000000000000000000000000000000000000000000000000000081526004018080602001828103825260228152602001806142cf6022913960400191505060405180910390fd5b60008460000184815481106137c557fe5b906000526020600020906002020190508060000154816001015492509250509250929050565b600080846001016000858152602001908152602001600020549050600081141583906138b2576040517f08c379a00000000000000000000000000000000000000000000000000000000081526004018080602001828103825283818151815260200191508051906020019080838360005b8381101561387757808201518184015260208101905061385c565b50505050905090810190601f1680156138a45780820380516001836020036101000a031916815260200191505b509250505060405180910390fd5b508460000160018203815481106138c557fe5b9060005260206000209060020201600101549150509392505050565b600081600001805490509050919050565b60006139138473ffffffffffffffffffffffffffffffffffffffff16613d8e565b6139205760019050613b2f565b6060613ab663150b7a0260e01b613935612dff565b888787604051602401808573ffffffffffffffffffffffffffffffffffffffff1673ffffffffffffffffffffffffffffffffffffffff1681526020018473ffffffffffffffffffffffffffffffffffffffff1673ffffffffffffffffffffffffffffffffffffffff16815260200183815260200180602001828103825283818151815260200191508051906020019080838360005b838110156139e55780820151818401526020810190506139ca565b50505050905090810190601f168015613a125780820380516001836020036101000a031916815260200191505b5095505050505050604051602081830303815290604052907bffffffffffffffffffffffffffffffffffffffffffffffffffffffff19166020820180517bffffffffffffffffffffffffffffffffffffffffffffffffffffffff8381831617835250505050604051806060016040528060328152602001614176603291398773ffffffffffffffffffffffffffffffffffffffff16613da19092919063ffffffff16565b90506000818060200190516020811015613acf57600080fd5b8101908080519060200190929190505050905063150b7a0260e01b7bffffffffffffffffffffffffffffffffffffffffffffffffffffffff1916817bffffffffffffffffffffffffffffffffffffffffffffffffffffffff191614925050505b949350505050565b600080836001016000848152602001908152602001600020541415905092915050565b60008083600101600084815260200190815260200160002054905060008114613c365760006001820390506000600186600001805490500390506000866000018281548110613ba557fe5b9060005260206000200154905080876000018481548110613bc257fe5b9060005260206000200181905550600183018760010160008381526020019081526020016000208190555086600001805480613bfa57fe5b60019003818190600052602060002001600090559055866001016000878152602001908152602001600020600090556001945050505050613c3c565b60009150505b92915050565b6000613c4e8383613db9565b613ca7578260000182908060018154018082558091505060019003906000526020600020016000909190919091505582600001805490508360010160008481526020019081526020016000208190555060019050613cac565b600090505b92915050565b6000808460010160008581526020019081526020016000205490506000811415613d5957846000016040518060400160405280868152602001858152509080600181540180825580915050600190039060005260206000209060020201600090919091909150600082015181600001556020820151816001015550508460000180549050856001016000868152602001908152602001600020819055506001915050613d87565b82856000016001830381548110613d6c57fe5b90600052602060002090600202016001018190555060009150505b9392505050565b600080823b905060008111915050919050565b6060613db08484600085613ddc565b90509392505050565b600080836001016000848152602001908152602001600020541415905092915050565b606082471015613e37576040517f08c379a00000000000000000000000000000000000000000000000000000000081526004018080602001828103825260268152602001806141f26026913960400191505060405180910390fd5b613e4085613d8e565b613eb2576040517f08c379a000000000000000000000000000000000000000000000000000000000815260040180806020018281038252601d8152602001807f416464726573733a2063616c6c20746f206e6f6e2d636f6e747261637400000081525060200191505060405180910390fd5b600060608673ffffffffffffffffffffffffffffffffffffffff1685876040518082805190602001908083835b60208310613f025780518252602082019150602081019050602083039250613edf565b6001836020036101000a03801982511681845116808217855250505050505090500191505060006040518083038185875af1925050503d8060008114613f64576040519150601f19603f3d011682016040523d82523d6000602084013e613f69565b606091505b5091509150613f79828286613f85565b92505050949350505050565b60608315613f955782905061404a565b600083511115613fa85782518084602001fd5b816040517f08c379a00000000000000000000000000000000000000000000000000000000081526004018080602001828103825283818151815260200191508051906020019080838360005b8381101561400f578082015181840152602081019050613ff4565b50505050905090810190601f16801561403c5780820380516001836020036101000a031916815260200191505b509250505060405180910390fd5b9392505050565b828054600181600116156101000203166002900490600052602060002090601f016020900481019282601f1061409257805160ff19168380011785556140c0565b828001600101855582156140c0579182015b828111156140bf5782518255916020019190600101906140a4565b5b5090506140cd91906140f3565b5090565b6040518060600160405280600390602082028036833780820191505090505090565b61411591905b808211156141115760008160009055506001016140f9565b5090565b9056fe456e756d657261626c655365743a20696e646578206f7574206f6620626f756e6473434f4f4c2c5349434b2c534558592c4352494e47452c434c4f555445442c494e53414e452c434f5a592c5341442c4c454749542c474f42454152534552433732313a207472616e7366657220746f206e6f6e20455243373231526563656976657220696d706c656d656e7465724f776e61626c653a206e6577206f776e657220697320746865207a65726f20616464726573734552433732313a207472616e7366657220746f20746865207a65726f2061646472657373416464726573733a20696e73756666696369656e742062616c616e636520666f722063616c6c4552433732313a206f70657261746f7220717565727920666f72206e6f6e6578697374656e7420746f6b656e4552433732313a20617070726f76652063616c6c6572206973206e6f74206f776e6572206e6f7220617070726f76656420666f7220616c6c4552433732313a2062616c616e636520717565727920666f7220746865207a65726f20616464726573734552433732313a206f776e657220717565727920666f72206e6f6e6578697374656e7420746f6b656e456e756d657261626c654d61703a20696e646578206f7574206f6620626f756e64734552433732313a20617070726f76656420717565727920666f72206e6f6e6578697374656e7420746f6b656e4661696c65642072616e646f6d20636865636b2c20494420746f6f206c617267654552433732313a207472616e73666572206f6620746f6b656e2074686174206973206e6f74206f776e4552433732314d657461646174613a2055524920717565727920666f72206e6f6e6578697374656e7420746f6b656e4661696c65642072616e646f6d20636865636b2c20746167494420746f6f206c617267654552433732313a20617070726f76616c20746f2063757272656e74206f776e65724552433732313a207472616e736665722063616c6c6572206973206e6f74206f776e6572206e6f7220617070726f766564a264697066735822122004ad7ec725167eeeab2b717f48f73a5b4806c7e94a5c11f186e08a724b30f87864736f6c63430006060033",
  "immutableReferences": {},
  "source": "pragma solidity >=0.6.0 <0.8.0;\n\nimport \"@openzeppelin/contracts/access/Ownable.sol\";\nimport \"@openzeppelin/contracts/token/ERC721/ERC721.sol\";\n\ncontract MerchToken is ERC721, Ownable {\n    /*** EVENTS ***/\n    /// The event emitted (useable by web3) when a token is purchased\n    event MerchToken(address indexed buyer, uint256 tokenId);\n\n    /*** CONSTANTS ***/\n    uint8 constant NAME_MIN_LENGTH = 1;\n    uint8 constant NAME_MAX_LENGTH = 64;\n    string constant public merchTypes = \"SHIRT,SOCKS,BACKPACK,PANTS,BRICK\";\n    string constant public tags = \"COOL,SICK,SEXY,CRINGE,CLOUTED,INSANE,COZY,SAD,LEGIT,GOBEARS\";\n\n    /*** DATA S ***/\n    struct MerchInfo {\n        uint256 price;\n        string name;\n        string picture;\n        string description;\n        uint256 merchType;\n        uint256 tag;\n        bool forSale;\n    }\n\n    //This mapping is from the tokens that exist in the contract to\n    //a relevant MerchInfo struct containing the token's properties\n    mapping(uint256 => MerchInfo) tokenInfos;\n\n    // The next token id to be issued. Every time a token is minted, index\n    // increases by 1.\n    uint256 index;\n\n    constructor() public ERC721(\"Merch Token\", \"OSKI\") {\n        // any init code when you deploy the contract would run here\n\n        //initialize contract with no tokens\n        index = 0;\n    }\n\n    /* Requires the amount of Ether be at least or more of the currentPrice\n     * @dev Creates an instance of an token and mints it to the purchaser.\n     *\n     * the default ERC721 Requires gas to mint, but we modified\n     * it to mint for free and have a price set by the user*/\n    function mintToken(\n        uint256 _price,\n        string calldata _name,\n        string calldata _picture,\n        string calldata _description,\n        bool _forSale\n    ) external payable {\n        bytes memory _nameBytes = bytes(_name);\n        require(_price > 0, \"Price must be greater than 0\");\n        require(bytes(_picture).length != 0, \"you need a picture\");\n        require(\n            bytes(_description).length != 0,\n            \"Description should not be null\"\n        );\n        require(_nameBytes.length >= NAME_MIN_LENGTH, \"Title is too short\");\n        require(_nameBytes.length <= NAME_MAX_LENGTH, \"Title is too long\");\n\n        // ***********TO DO:*************  Generate pseudorandom numbers\n        bytes32 hash1 = sha256(abi.encode(block.timestamp + uint256(msg.sender))); // will this work lol\n        bytes32 hash2 = keccak256(abi.encode(hash1)); // why do we have to wrap everything in abi.encode before hashing\n        uint256 result = uint256(hash2);\n\n        uint256 _merchType = result % 10;\n        uint256 _tag = result % 5;\n\n        require(_tag <= 4, \"Failed random check, ID too large\");\n        require(_merchType <= 9, \"Failed random check, tagID too large\");\n\n        _mint(msg.sender, index);\n\n        tokenInfos[index] = MerchInfo({\n            price: _price,\n            name: _name,\n            picture: _picture,\n            description: _description,\n            merchType: _merchType,\n            tag: _tag,\n            forSale: _forSale\n        });\n\n        //*****TO DO:****** once a token is minted, tell the contract by changing one variable\n        index += 1;\n\n        emit MerchToken(msg.sender, index);\n    }\n\n    function buyToken(uint256 _id) external payable {\n        require(tokenInfos[_id].price > 0); // ensure token exists\n        require(msg.value >= tokenInfos[_id].price); // ensure enough money paid for token\n        require(tokenInfos[_id].forSale == true); // ensure for sale\n\n        //pay with eth\n        bool sent = payable(ownerOf(_id)).send(msg.value);\n        require(sent, \"Failed to send Ether\");\n\n        //transfer the NFT\n        _transfer(ownerOf(_id), msg.sender, _id);\n        tokenInfos[_id].forSale = false;\n    }\n\n    // Returns the number of tokens issued so far\n    function getTokens() public returns (uint256) {\n        return index;\n    }\n\n    /* @notice Returns all the relevant information about a specific token\n     * @param _tokenId The ID of the token of interest */\n    function getToken(uint256 _tokenId)\n        external\n        view\n        returns (\n            string memory _name,\n            string memory _picture,\n            string memory _description,\n            uint256[3] memory _ints, //price, tag, and type are stored as ints in this array\n            bool _forSale\n        )\n    {\n        require(_tokenId < index); // ensure token exists\n\n        _name = tokenInfos[_tokenId].name;\n        _picture = tokenInfos[_tokenId].picture;\n        _description = tokenInfos[_tokenId].description;\n\n        _ints[0] = (tokenInfos[_tokenId].price);\n        _ints[1] = (tokenInfos[_tokenId].merchType);\n        _ints[2] = (tokenInfos[_tokenId].tag);\n\n        _forSale = tokenInfos[_tokenId].forSale;\n    }\n\n    //******TO DO************\n    // Changes the price that must be paid to buy a particular token\n    function changePrice(uint256 _tokenId, uint256 _newPrice) public {\n        require(_newPrice != 0, \"New price must be non-zero.\");\n        require(_tokenId < index, \"Token must exist in contract\");\n        require(ownerOf(_tokenId) == msg.sender);\n\n        tokenInfos[_tokenId].price = _newPrice;\n\n    }\n\n    // Allow a token to be sold\n    function listToken(uint256 _tokenId) public {\n        require(ownerOf(_tokenId) == msg.sender);\n        require(!tokenInfos[_tokenId].forSale);\n        tokenInfos[_tokenId].forSale = true;\n    }\n\n    // Disallow a token to be sold\n    function unListToken(uint256 _tokenId) public {\n        require(ownerOf(_tokenId) == msg.sender);\n        require(tokenInfos[_tokenId].forSale);\n        tokenInfos[_tokenId].forSale = false;\n    }\n}\n",
  "sourcePath": "/Users/kristiehuang/Documents/Hacks/Oski-NFT-Marketplace/contracts/MerchToken.sol",
  "compiler": {
    "name": "solc",
    "version": "0.6.6+commit.6c089d02.Emscripten.clang"
  },
  "schemaVersion": "3.3.3",
  "updatedAt": "2021-09-21T07:51:21.354Z",
  "networkType": "ethereum",
  "devdoc": {
    "methods": {
      "approve(address,uint256)": {
        "details": "See {IERC721-approve}."
      },
      "balanceOf(address)": {
        "details": "See {IERC721-balanceOf}."
      },
      "baseURI()": {
        "details": "Returns the base URI set via {_setBaseURI}. This will be automatically added as a prefix in {tokenURI} to each token's URI, or to the token ID if no specific URI is set for that token ID."
      },
      "getApproved(uint256)": {
        "details": "See {IERC721-getApproved}."
      },
      "isApprovedForAll(address,address)": {
        "details": "See {IERC721-isApprovedForAll}."
      },
      "name()": {
        "details": "See {IERC721Metadata-name}."
      },
      "owner()": {
        "details": "Returns the address of the current owner."
      },
      "ownerOf(uint256)": {
        "details": "See {IERC721-ownerOf}."
      },
      "renounceOwnership()": {
        "details": "Leaves the contract without owner. It will not be possible to call `onlyOwner` functions anymore. Can only be called by the current owner.     * NOTE: Renouncing ownership will leave the contract without an owner, thereby removing any functionality that is only available to the owner."
      },
      "safeTransferFrom(address,address,uint256)": {
        "details": "See {IERC721-safeTransferFrom}."
      },
      "safeTransferFrom(address,address,uint256,bytes)": {
        "details": "See {IERC721-safeTransferFrom}."
      },
      "setApprovalForAll(address,bool)": {
        "details": "See {IERC721-setApprovalForAll}."
      },
      "supportsInterface(bytes4)": {
        "details": "See {IERC165-supportsInterface}.     * Time complexity O(1), guaranteed to always use less than 30 000 gas."
      },
      "symbol()": {
        "details": "See {IERC721Metadata-symbol}."
      },
      "tokenByIndex(uint256)": {
        "details": "See {IERC721Enumerable-tokenByIndex}."
      },
      "tokenOfOwnerByIndex(address,uint256)": {
        "details": "See {IERC721Enumerable-tokenOfOwnerByIndex}."
      },
      "tokenURI(uint256)": {
        "details": "See {IERC721Metadata-tokenURI}."
      },
      "totalSupply()": {
        "details": "See {IERC721Enumerable-totalSupply}."
      },
      "transferFrom(address,address,uint256)": {
        "details": "See {IERC721-transferFrom}."
      },
      "transferOwnership(address)": {
        "details": "Transfers ownership of the contract to a new account (`newOwner`). Can only be called by the current owner."
      }
    }
  },
  "userdoc": {
    "methods": {}
  }
}